:020000040000FA
:100000000C9439010C94F6090C94CB090C94A009BA
:100010000C9475090C944A090C941F090C94F4086B
:100020000C94C9080C946A010C946A010C946A013E
:100030000C946A010C946A010C946A010C946A0194
:100040000C946A010C94AB0A0C946A010C946A013A
:100050000C946A010C946A010C946A010C947F0858
:100060000C946A010C946A010C946A010C946A0164
:100070000C946A010C946A010C946A010C946A0154
:100080000C947D0A0C946A010C946A010C946A0128
:100090000C946A010C946A010C946A010C946A0134
:1000A0000C946A010C946A010C944F0A0C946A0136
:1000B0000C946A010C946A010C946A010C94210A54
:1000C0000C946A010C946A010C946A010C946A0104
:1000D0000C946A010C946A010C946A010C946A01F4
:1000E0000C946A010C9491030C9479080C94F2011D
:1000F0000C94000F0C94B7010C94EA020C94EB02E0
:100100000C94FC010C94C5010C94BD010C94F801F5
:100110000C94A6050C94EA010C94F7010C94DC01F4
:100120000C94CC010C94D6010C94C9010C946C0174
:100130000C94EC020C94E4010C9495030C94EE01E5
:100140000C94C1010C94E0010C948D030C94D20129
:1001500000002100240027002A002D003000330079
:1001600001010000040107010A010000220025002E
:1001700028002B002E003100340002010000050190
:1001800008010B0100000A0B02090C0D0E08070301
:10019000040100000000000000000000000000005A
:1001A000000000000000000000000000000000004F
:1001B000121110000000000000000000000000000C
:1001C00000000000000000000000000020002300EC
:1001D000260029002C002F0032000001000003013E
:1001E00006010901050505050705080808080202BA
:1001F00002020A0A080804040404010101010101C1
:1002000001010303030303030303040707070C0CA3
:100210000C0C0C0C0C0C020202020606060606066A
:1002200006060B0B0B0B0B0B0B0B0102102020080F
:100230000810204010204080020102010804020141
:1002400001020408102040808040201008040201B0
:100250008004020180402010080402010804020109
:100260000102040810204080010204081020408090
:10027000000F11241FBECFEFD1E2DEBFCDBF00E0E3
:100280000CBF12E0A0E0B2E0EAE2F2E200E00BBF55
:1002900002C007900D92AC35B107D9F724E0ACE568
:1002A000B2E001C01D92AE3DB207E1F711E0C9E333
:1002B000D1E000E006C021970109802FFE010E94D5
:1002C0000B11C833D10780E00807A9F70E94EC0B97
:1002D0000C9413110C940000AF92BF92CF92DF9256
:1002E000EF92FF920F931F93CF93DF936C017B01EB
:1002F0008B01040F151FEB015E01AE18BF08C0177C
:10030000D10759F06991D601ED91FC910190F081EE
:10031000E02DC6011995892B79F7C501DF91CF91A1
:100320001F910F91FF90EF90DF90CF90BF90AF9013
:1003300008958150823108F05AC0E82FF0E08827F4
:10034000EB55FE4F8F4F0C940B11C501C901B7013E
:10035000BD01C101F701CC01D201D601DC01E001F0
:10036000E401EA01EE01F701F201F801FC018091DC
:1003700080008F77809380000895809180008F7D2A
:10038000F9CF80918000877FF5CF84B58F7784BDCA
:10039000089584B58F7DFBCF8091B0008F778093D7
:1003A000B00008958091B0008F7DF9CF80919000CA
:1003B0008F77809390000895809190008F7DF9CF82
:1003C00080919000877FF5CF8091A0008F778093F8
:1003D000A00008958091A0008F7DF9CF8091A000AA
:1003E000877FF5CF809120018F778093200108953A
:1003F000809120018F7DF9CF80912001877FF5CFFB
:10040000CF93DF93282F30E0F901EC57FE4F849112
:10041000F901E65DFD4FD491F901EC51FE4FC49115
:10042000CC23A1F081110E949901EC2FF0E0EE0F96
:10043000FF1FE653FE4FA591B491EC91ED2381E0AF
:1004400090E009F480E0DF91CF91089580E090E0A2
:10045000FACF1F93CF93DF93282F30E0F901EC57A9
:10046000FE4F8491F901E65DFD4FD491F901EC5105
:10047000FE4FC491CC23A9F0162F81110E9499013F
:10048000EC2FF0E0EE0FFF1FE659FE4FA591B4915F
:100490008FB7F894EC91111108C0D095DE23DC934E
:1004A0008FBFDF91CF911F910895DE2BF8CFCF93AF
:1004B000DF9390E0FC01E65DFD4F24918C519E4F4F
:1004C000FC0184918823C9F090E0880F991FFC01FA
:1004D000E05BFE4FA591B491FC01E659FE4FC5913A
:1004E000D49161110DC09FB7F8948C91209582230F
:1004F0008C938881282328839FBFDF91CF91089513
:10050000623051F49FB7F8943C91822F80958323F9
:100510008C93E8812E2BEFCF8FB7F894EC912E2B94
:100520002C938FBFEACF3FB7F8948091F602909159
:10053000F702A091F802B091F90226B5A89B05C078
:100540002F3F19F00196A11DB11D3FBFBA2FA92F52
:10055000982F8827BC01CD01620F711D811D911D4F
:1005600042E0660F771F881F991F4A95D1F70895BB
:100570008F929F92AF92BF92CF92DF92EF92FF92B3
:100580004B015C010E9493026B017C010E9493026B
:100590006C197D098E099F09683E7340810591059C
:1005A000A8F321E0821A9108A108B10888EEC80ECC
:1005B00083E0D81EE11CF11C81149104A104B10454
:1005C00029F7FF90EF90DF90CF90BF90AF909F9072
:1005D0008F9008950895089590E080E00895CF9356
:1005E000DF93DC0126E0629FA00DB11D11249096DF
:1005F0005C934E935F9721E091962C939197FC0129
:10060000E359FF4F0190F081E02DEC01C459DF4F19
:100610002881222341F0309719F0DC01662329F06C
:10062000DF91CF9108953097D9F35C968C91DF914B
:10063000CF911994CF92DF92EF92FF920F931F9375
:10064000CF93DF93FC0126E0629FE00DF11D1124A2
:1006500011A2278D30A12130310559F188F02230C7
:10066000310509F452C02330310509F453C0DF913C
:10067000CF911F910F91FF90EF90DF90CF90089551
:100680004423A9F3EC0141E050E00E94EF022FB7B0
:10069000F8948091F2029091F302A091F402B0914B
:1006A000F5022FBFC85ADF4F88839983AA83BB8383
:1006B000DECF2FB7F894C090F202D090F302E09012
:1006C000F402F090F5022FBFFC01E85AFF4F0081C1
:1006D000118122813381C01AD10AE20AF30A72968B
:1006E0000081118130E020E00C151D052E053F052D
:1006F00060F442E050E0DF91CF911F910F91FF90A5
:10070000EF90DF90CF900C94EF024111B0CF43E017
:1007100050E0F1CF50E040E0EECF862F642F0C94F4
:100720005702862F642F0C942902862F0C94000206
:100730002F923F924F925F926F927F928F929F92F1
:10074000AF92BF92CF92DF92EF92FF920F931F93DF
:10075000CF93DF93CDB7DEB72C970FB6F894DEBFFB
:100760000FBECDBF9C0124593F4F3A83298321E01E
:10077000A981BA812C934FB7F8940091F20210919D
:10078000F3022091F4023091F5024FBFFC01E45ACC
:10079000FF4FFC83EB834081518162817381041B95
:1007A000150B260B370B3C964081518170E060E0C1
:1007B000401751076207730708F059C19C878B8760
:1007C00010E06C01F6E6CF0ED11C7C0122E6E20EB1
:1007D000F11CD6018C91181758F4D701ED91FC91BA
:1007E000E10FF11D62E080810E9457021F5FF1CF8F
:1007F000312C4B845C84B7E64B0E511CEB84FC849B
:10080000E4E6EE0EF11C812C912C540183942B858F
:100810003C852E593F4F3A872987D2018C91381653
:1008200008F063C0032D10E0D701ED91FC91E00FBB
:10083000F11F61E080810E945702D701ED91FC9188
:10084000E00FF11F60E080810E942902D501C40100
:10085000032C04C0880F991FAA1FBB1F0A94D2F74C
:100860009E838D83FC01E095F095F887EF83212C22
:10087000D6018C91281620F5622C712CA985BA8599
:10088000ED91FC91E60DF71D80810E940002660C3F
:10089000771CEB85FC85E60DF71D892B51F48085CF
:1008A00091852D813E81822B932B91878087239484
:1008B000DFCF808591854F81588584239523F5CF9F
:1008C000D701ED91FC91E00FF11F61E080810E9462
:1008D0002902F70180819181080F191F60E0D8017A
:1008E0008C910E945702339498CF0B851C85C801C8
:1008F000CC9678012FEF3FEFF701478D50A1452BA4
:1009000021F4148E368F258F11A2F6E0EF0EF11C24
:10091000E816F90689F7912CAB84BC8420E6A20E78
:10092000B11C96E0392ED6018C91981608F059C06A
:10093000812C692C712CB4E06B0E711C660C771C39
:10094000EB85FC856E0E7F1ED2018C91881608F017
:1009500046C0F30140815181082C02C0569547954D
:100960000A94E2F7989EC0011124880D911DEB8531
:10097000FC8560E0258D368D8217930709F47CC0D5
:100980006F5F36966A30B1F740FF27C0EB85FC8574
:1009900070E060E0248D21111AC0D501ED91FC9129
:1009A000E80FF91F2081369EF001379EF00D1124CB
:1009B0004B855C85E40FF51F248F968F858F10A2E1
:1009C000178E41E08B859C850E941A0306C06F5FDD
:1009D0007F4F36966A307105E9F68394B5CF9394CC
:1009E000A2CF80E0D80191969C919111892F0A5F46
:1009F0001F4FE016F106B1F79FB7F8944091F2024D
:100A00005091F3026091F4027091F5029FBFEB8167
:100A1000FC814083518362837383882341F1AB85DA
:100A2000BC8591968C919197882309F15F968D9161
:100A30009C9190970197D9F45C968C912C960FB667
:100A4000F894DEBF0FBECDBFDF91CF911F910F9104
:100A5000FF90EF90DF90CF90BF90AF909F908F90DE
:100A60007F906F905F904F903F902F900895E98115
:100A7000FA81108280E0E2CF4170A4CF8F929F92E2
:100A8000AF92BF92FF920F931F93CF93DF93FC011E
:100A9000F0808FE28F1508F44FC0828108E512E0E4
:100AA000081B110987FD1395000F111F000F111F5F
:100AB0008181C8E8D0E0C81BD10987FDD395CC0F50
:100AC000DD1FCC0FDD1F4E010D2E000CAA08BB0848
:100AD000DB01653B710514F0A4EBB0E09801012E39
:100AE000000C440B550B281939094A095B090E946F
:100AF000900F24EB30E040E050E00E94660F820E41
:100B0000931EA41EB51E8C169D062CF0E8018016BF
:100B100091060CF4E4012297CC0FDD1F2FB7F89457
:100B20008F2D90E0FC01EE0FFF1FE80FF91FEF592A
:100B3000FD4FD283C1832FBFDF91CF911F910F91C2
:100B4000FF90BF90AF909F908F90089570E060E00D
:100B500083E594E00E943E0570E060E080EE93E063
:100B60000E943E0570E060E08DE693E00E943E0545
:100B700070E060E08AEF92E00E943E0561E087E06D
:100B80000C9429021F93CF93DF93EC01162F8881D9
:100B9000803308F04EC061E0812F0E9457028881A7
:100BA000282F30E0F901EE0FFF1FE20FF31FEF597E
:100BB000FD4F1F736081607C612B608319821A82F4
:100BC0002CE0622F0E94FF10829FB001112430E0C0
:100BD00020E0AB01420F531FFA01EE0FFF1FE40F9D
:100BE000F51FEF59FD4F908196FD16C02F5F3F4FC7
:100BF0002C30310571F7813009F51092800082E0C8
:100C0000809381001092850010928400B19A8091A7
:100C10006F00826080936F00E8818E2F90E0FC016E
:100C2000EE0FFF1FE80FF91FEF59FD4F8081806421
:100C300080838881DF91CF911F910895823061F484
:100C40001092900080939100109295001092940061
:100C500088BB80937100E0CF833069F41092A000CC
:100C600082E08093A1001092A5001092A40089BB9D
:100C700080937200D1CF8111CFCF1092200182E0FA
:100C80008093210110922501109224018ABB809348
:100C90007300C2CFAF92BF92CF92DF92EF92FF92DA
:100CA0000F931F93CF93DF936B017A01EC01C45A2A
:100CB000DD4F28813CE0389F8001399F100D1124C1
:100CC000A0906002B12C27FF1FC0FB01118210828F
:100CD00088818F5F888388819801280F311D87FD67
:100CE0003A95F6012A153B051CF488818C30C4F135
:100CF00080819181049680349C4908F473C0F60188
:100D000080819181049670C088819801280F311DDF
:100D100087FD3A952A153B05DCF68881A801480F26
:100D2000511D87FD5A95FA01EE0FFF1FE40FF51FC5
:100D3000EF59FD4F808186FFCBCF8881F801E80F06
:100D4000F11D87FDFA95CF01EE0FFF1FE80FF91F88
:100D5000EF59FD4F808160E08F730E942902B8CF68
:100D6000808191812881A801420F511D27FD5A954C
:100D70009A01FA01EE0FFF1FE20FF31FEF59FD4F2B
:100D800021813281820F931FF701918380838881B3
:100D90009801280F311D87FD3A95F901EE0FFF1FCD
:100DA000E20FF31FEF59FD4F808186FF22C088813B
:100DB000080F111D87FD1A95F801EE0FFF1FE00FB8
:100DC000F11FEF59FD4F808161E08F73DF91CF916B
:100DD0001F910F91FF90EF90DF90CF90BF90AF9059
:100DE0000C94290280E49CE9F701918380838FEFC2
:100DF0008883DF91CF911F910F91FF90EF90DF904B
:100E0000CF90BF90AF9008950F931F9390E0FC0197
:100E1000E65DFD4F6491FC01EC51FE4FE491F0E082
:100E2000EE0FFF1FE653FE4F8591949100E412E40C
:100E30002FE030E0462F0E94D90A61157105810527
:100E4000910529F06F5F7F4F8F4F9F4F9F701F91CC
:100E50000F910895FC0101900020E9F73197AF014F
:100E6000481B590BBC0186EC94E00C946C01CF93A9
:100E7000DF93EC0160E08E810E94290261E08E81A7
:100E80000E94290260E08E810E9429028BE891E095
:100E90000197F1F7DF91CF910895CF92DF92EF9212
:100EA000FF920F931F93CF93DF936C017C0187E038
:100EB000E80EF11CD0E0C0E0062F10E0B8010C2EC7
:100EC00002C0759567950A94E2F76170F701819108
:100ED0007F010E9429022196C430D10579F7C6010D
:100EE000DF91CF911F910F91FF90EF90DF90CF9006
:100EF0000C943707CF92DF92EF92FF920F931F93DC
:100F0000CF93DF93EC01F62E642F8C810E9429028F
:100F10008D818F3F19F060E00E9429020F2D10E0B3
:100F20008F8584FF25C06E0187E0C80ED11CF12C8F
:100F3000E12CB8010E2C02C0759567950A94E2F772
:100F40006170F60181916F010E942902FFEFEF1A93
:100F5000FF0A88E0E816F10461F7CE01DF91CF9136
:100F60001F910F91FF90EF90DF90CF900C94370777
:100F7000B80184E0759567958A95E1F7CE010E94E6
:100F80004D076F2DCE01DF91CF911F910F91FF90F3
:100F9000EF90DF90CF900C944D0740E0682F86ECE7
:100FA00094E00C947A07CF93DF93823029F49091E8
:100FB000D50498609093D5048093D9041092DA04F4
:100FC00080E48093DB0480E18093DC0480E58093FF
:100FD000DD0461E08091CA040E9457028091CB0435
:100FE0008F3F19F061E00E94570261E08091CC04CC
:100FF0000E945702C6ECD4E09E01265C34408091EA
:10100000D50484FD0BC084E090E0219628173907B1
:1010100044F461E08E810E945702EECF88E090E0B8
:10102000F4CF8BE39DE00197F1F760E08091CA0473
:101030000E94290260E08091CC040E9429028091E4
:10104000CB048F3F19F060E00E9429028091D50403
:1010500084FD39C063E086EC94E00E944D07CBE448
:10106000D6E4CE010197F1F763E086EC94E00E94AC
:101070004D072197F1F763E086EC94E00E944D075D
:1010800083E592E00197F1F762E086EC94E00E943C
:101090004D078091D50480620E94CD0784E0809343
:1010A000D6048CE00E94CD0781E00E94CD078BE33F
:1010B0009FE10197F1F782E08093D70486E0DF910A
:1010C000CF910C94CD0780620E94CD078BE496E40B
:1010D0000197F1F78091D50480620E94CD0783E5E6
:1010E00092E00197F1F78091D50480620E94CD07CC
:1010F000D0CF41E00E947A0781E090E008951F92EE
:101100000F920FB60F9211242F933F938F939F93BB
:10111000AF93BF938091F2029091F302A091F402F9
:10112000B091F5023091F10223E0230F2D3758F5ED
:101130000196A11DB11D2093F1028093F2029093BC
:10114000F302A093F402B093F5028091F60290911D
:10115000F702A091F802B091F9020196A11DB11D0C
:101160008093F6029093F702A093F802B093F902ED
:10117000BF91AF919F918F913F912F910F900FBE93
:101180000F901F90189526E8230F0296A11DB11D00
:10119000D2CF1F920F920FB60F9211240BB60F925F
:1011A0002F933F934F935F936F937F938F939F936F
:1011B000AF93BF93EF93FF93E0911A02F0911B025C
:1011C0001995FF91EF91BF91AF919F918F917F9171
:1011D0006F915F914F913F912F910F900BBE0F90A8
:1011E0000FBE0F901F9018951F920F920FB60F927F
:1011F00011240BB60F922F933F934F935F936F93EE
:101200007F938F939F93AF93BF93EF93FF93E0915F
:101210001802F09119021995FF91EF91BF91AF91CA
:101220009F918F917F916F915F914F913F912F91FE
:101230000F900BBE0F900FBE0F901F9018951F922E
:101240000F920FB60F9211240BB60F922F933F936C
:101250004F935F936F937F938F939F93AF93BF93BE
:10126000EF93FF93E0910E02F0910F021995FF9119
:10127000EF91BF91AF919F918F917F916F915F910E
:101280004F913F912F910F900BBE0F900FBE0F907B
:101290001F9018951F920F920FB60F9211240BB644
:1012A0000F922F933F934F935F936F937F938F93FF
:1012B0009F93AF93BF93EF93FF93E0910C02F09154
:1012C0000D021995FF91EF91BF91AF919F918F9171
:1012D0007F916F915F914F913F912F910F900BBE36
:1012E0000F900FBE0F901F9018951F920F920FB680
:1012F0000F9211240BB60F922F933F934F935F934E
:101300006F937F938F939F93AF93BF93EF93FF93CD
:10131000E0911602F09117021995FF91EF91BF919C
:10132000AF919F918F917F916F915F914F913F917D
:101330002F910F900BBE0F900FBE0F901F9018951E
:101340001F920F920FB60F9211240BB60F922F938C
:101350003F934F935F936F937F938F939F93AF933D
:10136000BF93EF93FF93E0911402F091150219954A
:10137000FF91EF91BF91AF919F918F917F916F916D
:101380005F914F913F912F910F900BBE0F900FBE29
:101390000F901F9018951F920F920FB60F92112465
:1013A0000BB60F922F933F934F935F936F937F935F
:1013B0008F939F93AF93BF93EF93FF93E0911202AC
:1013C000F09113021995FF91EF91BF91AF919F9109
:1013D0008F917F916F915F914F913F912F910F90DE
:1013E0000BBE0F900FBE0F901F9018951F920F927B
:1013F0000FB60F9211240BB60F922F933F934F937A
:101400005F936F937F938F939F93AF93BF93EF936C
:10141000FF93E0911002F09111021995FF91EF9165
:10142000BF91AF919F918F917F916F915F914F91FC
:101430003F912F910F900BBE0F900FBE0F901F90FA
:1014400018951F920F920FB60F9211240BB60F92A0
:101450002F933F934F935F936F937F938F939F93BC
:10146000AF93BF93EF93FF9348E251E064E271E0E2
:1014700090E080E00E944A06FF91EF91BF91AF910A
:101480009F918F917F916F915F914F913F912F919C
:101490000F900BBE0F900FBE0F901F9018951F92CC
:1014A0000F920FB60F9211240BB60F922F933F930A
:1014B0004F935F936F937F938F939F93AF93BF935C
:1014C000EF93FF9348EA50E064EA70E083E090E035
:1014D0000E944A06FF91EF91BF91AF919F918F912A
:1014E0007F916F915F914F913F912F910F900BBE24
:1014F0000F900FBE0F901F9018951F920F920FB66E
:101500000F9211240BB60F922F933F934F935F933B
:101510006F937F938F939F93AF93BF93EF93FF93BB
:1015200048E950E064E970E082E090E00E944A06F9
:10153000FF91EF91BF91AF919F918F917F916F91AB
:101540005F914F913F912F910F900BBE0F900FBE67
:101550000F901F9018951F920F920FB60F921124A3
:101560000BB60F922F933F934F935F936F937F939D
:101570008F939F93AF93BF93EF93FF9348E850E00F
:1015800064E870E081E090E00E944A06FF91EF91EC
:10159000BF91AF919F918F917F916F915F914F918B
:1015A0003F912F910F900BBE0F900FBE0F901F9089
:1015B0001895CF92DF92EF92FF920F931F93E82F2F
:1015C000F92F05C0015011092109310961F19081FC
:1015D00096239417B9F305C0015011092109310967
:1015E00011F1908196239413F7CFC12CD12CE12CCB
:1015F000F12C0AC08FEFC81AD80AE80AF80A0C15AD
:101600001D052E053F0579F080818623841791F30F
:101610006C2D7D2D8E2D9F2D1F910F91FF90EF90A2
:10162000DF90CF90089560E070E080E090E01F913F
:101630000F91FF90EF90DF90CF900895FC01128200
:101640001682158217828EE292E091838083DF01F9
:101650005C96CD01CC961C9214961C921E92139708
:1016600015961C9215971696A817B907A1F7DF01D2
:10167000AE59BF4F11967C936E93129611965C9360
:101680004E93129681E08C93119682E08C9317977B
:101690008CE192E011969C938E9318968AE090E0EC
:1016A00011969C938E93129684EF91E011969C93E1
:1016B0008E93139611961C921E9251971D921D9215
:1016C0001D921C921397E459FF4F108208958F9238
:1016D0009F92AF92BF92CF92DF92EF92FF92FC0166
:1016E000828158E5C52E52E0D52EC81AD10887FD53
:1016F000D394CC0CDD1CCC0CDD1C0D2C000CEE08A6
:10170000FF08818178E8872E912C881A910887FD3F
:101710009394880C991C880C991C092C000CAA081D
:10172000BB0880818F3FD1F190E0FC01EE0FFF1FDD
:10173000E80FF91FEF59FD4F8181928133E0880F47
:10174000991F3A95E1F7B0E0A0E044E0B595A79580
:10175000979587954A95D1F702969C012F5F3F4F49
:10176000032E000C440B550B281939094A095B0953
:10177000A4EBB0E00E94850FA70196012819390952
:101780004A095B090E94660FC901FF90EF90DF9044
:10179000CF90BF90AF909F908F90089590E080E0A1
:1017A000DCCFFC0190916002903398F481E0890FC6
:1017B000809360029083892F90E0FC01EE0FFF1F61
:1017C000E80FF91FEF59FD4F88EB9BE0928381836F
:1017D00008958FEF80830895CF93DF93CDB7DEB761
:1017E000A1970FB6F894DEBF0FBECDBF789484B535
:1017F000826084BD84B5816084BD85B5826085BD0D
:1018000085B5816085BD80916E00816080936E009A
:10181000109281008091810082608093810080918C
:10182000810081608093810080918000816080933D
:1018300080008091B10084608093B1008091B000FD
:1018400081608093B00080919100826080939100CC
:1018500080919100816080939100809190008160DF
:10186000809390008091A10082608093A10080917C
:10187000A10081608093A1008091A000816080938D
:10188000A00080912101826080932101809121013B
:1018900081608093210180912001816080932001EB
:1018A00080917A00846080937A0080917A008260CF
:1018B00080937A0080917A00816080937A00809191
:1018C0007A00806880937A001092C10082E00E94C2
:1018D000D30761E087E00E94570266E170E083E58C
:1018E00094E00E94C20565E370E080EE93E00E9400
:1018F000C20569E070E08DE693E00E94C20566E3F0
:1019000070E08AEF92E00E94C20561E08AE10E94E5
:10191000570260E088E10E94570261E08FE30E9475
:10192000570260E08EE30E94570261E088E00E9467
:10193000570260E08AE00E94570261E08DE30E9456
:10194000570260E08CE30E94570261E082E30E944C
:10195000570261E082E00E94570261E081E00E944C
:10196000570261E083E00E94570261E085E40E9433
:10197000570260E084E40E94570261E083E40E9421
:10198000570261E08DE00E94570260E08CE00E9407
:10199000570261E08BE00E94570286EA95E090933F
:1019A0000F0280930E0280916A00837F846080938F
:1019B0006A00ED9A2AE0422E512C612C712C809104
:1019C0007B00877F80937B0021E420937C008091C3
:1019D0007A00806480937A0080917A0086FDFCCF43
:1019E0008091780000917900102F082F61E087E046
:1019F0000E94290288E10E94000261E08AE10E94BF
:101A000029028EE30E94000261E08FE30E94290216
:101A10008AE00E94000261E088E00E9429028CE3D3
:101A20000E94000261E08DE30E94290287E594E0B4
:101A30000E949803843409F071C180915604853B5B
:101A400090F480915604865F80935604609156040A
:101A500070E083E594E00E943E056FE070E080E076
:101A600090E00E94B80284EE93E00E9498038434D0
:101A700009F05DC18091E303853B90F48091E3031D
:101A8000865F8093E3036091E30370E080EE93E070
:101A90000E943E056FE070E080E090E00E94B80296
:101AA00081E793E00E949803853509F049C1809150
:101AB0007003853B90F480917003865F8093700380
:101AC0006091700370E08DE693E00E943E056FE048
:101AD00070E080E090E00E94B8028EEF92E00E94F9
:101AE0009803843409F035C18091FD02853B90F460
:101AF0008091FD02865F8093FD026091FD0270E09F
:101B00008AEF92E00E943E056FE070E080E090E096
:101B10000E94B802E1E08091D9048111E0E0E195F2
:101B2000F0E0EA53FB4F848980680E94CD0784E38C
:101B300092E00E942A076801012E000CEE08FF08BF
:101B400017FF10C141E06DE286EC94E00E947A0735
:101B500022273327A9012C193D094E095F0919A233
:101B6000CE0181967C01CA01B901A30192010E94B4
:101B7000980F605DF70162937F01211531054105E2
:101B8000510589F7E114F10419F0C7010E942A07F1
:101B9000E091D904E23008F0FBC0E150F0E0EA53F4
:101BA000FB4F848980680E94CD070039F1E01F0750
:101BB00064F480E492E00E942A0760E081E00E94E1
:101BC000290260E083E00E942902C8018059914007
:101BD0008C32914008F0DEC086E492E00E942A0731
:101BE00061E082E00E94570261E082E00E942902E7
:101BF00061E081E00E94290260E083E00E94290206
:101C000061E085E40E94290261E070E080E090E0FC
:101C10000E94B80260E085E40E94290284E40E94E8
:101C200004079B0177FF02C02F5F3F4FB9017595F5
:101C30006795072E000C880B990B0E9473102DECF2
:101C40003CEC48EE51E40E94C90F0E943B104B014E
:101C50001B0161E08DE00E94290261E070E080E0FC
:101C600090E00E94B80260E08DE00E9429028CE0C2
:101C70000E9404079B0177FF02C02F5F3F4FB9010D
:101C800075956795072E000C880B990B0E947310B1
:101C90002DEC3CEC48EE51E40E94C90F0E943B1031
:101CA0006B018B0194E02916310420F004301105FA
:101CB00008F08CC061E082E30E94570260E082E39A
:101CC0000E9429026CE370E080E090E00E94B8027C
:101CD0006CE370E080E090E00E94B80224E0C21A59
:101CE000D1088FE2C816D10408F07BC061E08BE018
:101CF0000E9429026CE370E080E090E00E94B8024C
:101D000094E0291631040CF45ACE61E082E30E947B
:101D1000570261E082E30E94290251CE853509F025
:101D2000A2CE80915604809156048A508DCE85357E
:101D300009F0B6CE8091E3038091E3038A50A1CEEF
:101D4000843409F0CACE80917003809170038A5068
:101D5000B5CE853509F0DECE8091FD028091FD0281
:101D60008A50C9CEA701960119A2CE0181967C01A5
:101D7000CA01B901A30192010E94980F605DF701A9
:101D800062937F01211531054105510589F7FACE8E
:101D9000E1E004CF0C3B12400CF432CF82E592E03C
:101DA0000E942A0761E082E00E94570261E082E01F
:101DB0000E94290268EE73E080E090E00E94B80281
:101DC00061E081E00E94290261E017CFE4E08E1A11
:101DD000910861E0FFE28F16910408F060E083E46F
:101DE0006FCF60E08BE00E9429026CE370E080E03E
:101DF00090E00E94B802043011050CF4E0CD80CFD1
:101E000083E594E00E94D10B80EE93E00E94D10B19
:101E10008DE693E00E94D10B8AEF92E00E94D10BF5
:101E2000E6ECF4E01382128282E292E091838083F6
:101E300080E184838FEF858381E1868382E18783DC
:101E400083E1808784E1818785E182871386148618
:101E500015861686178681E00E94D30783E594E0F5
:101E60000E94670B8093560480EE93E00E94670BFC
:101E70008093E3038DE693E00E94670B80937003E9
:101E80008AEF92E00E94670B8093FD0249E052E0E6
:101E90006BE072E087E594E00E941E0B46E052E0A2
:101EA00068E072E084EE93E00E941E0B43E052E093
:101EB00065E072E081E793E00E941E0B40E052E093
:101EC00062E072E08EEF92E00C941E0B052E97FB01
:101ED0001EF400940E947D0F57FD07D00E94980FBA
:101EE00007FC03D04EF40C947D0F5095409530952F
:101EF00021953F4F4F4F5F4F089590958095709576
:101F000061957F4F8F4F9F4F08950E94BA0FA59FF5
:101F1000900DB49F900DA49F800D911D11240895E4
:101F2000B7FF0C94850F0E94850F821B930B0895B9
:101F3000A1E21A2EAA1BBB1BFD010DC0AA1FBB1FCD
:101F4000EE1FFF1FA217B307E407F50720F0A21B3F
:101F5000B30BE40BF50B661F771F881F991F1A94AC
:101F600069F760957095809590959B01AC01BD01D6
:101F7000CF010895A29FB001B39FC001A39F700D30
:101F8000811D1124911DB29F700D811D1124911D81
:101F900008950E94DD0F0C94C5100E94BE1058F0E9
:101FA0000E94B71040F029F45F3F29F00C94AE1066
:101FB00051110C94F9100C94B4100E94D61068F3CF
:101FC0009923B1F3552391F3951B550BBB27AA27F2
:101FD00062177307840738F09F5F5F4F220F331F2C
:101FE000441FAA1FA9F335D00E2E3AF0E0E832D0F4
:101FF00091505040E695001CCAF72BD0FE2F29D0F7
:10200000660F771F881FBB1F261737074807AB07C8
:10201000B0E809F0BB0B802DBF01FF2793585F4F3D
:102020003AF09E3F510578F00C94AE100C94F910E4
:102030005F3FE4F3983ED4F3869577956795B7951F
:10204000F7959F5FC9F7880F911D9695879597F92A
:102050000895E1E0660F771F881FBB1F62177307A3
:102060008407BA0720F0621B730B840BBA0BEE1FB8
:1020700088F7E09508950E9442106894B1110C947D
:10208000F91008950E94DE1088F09F5798F0B92F3C
:102090009927B751B0F0E1F0660F771F881F991F9D
:1020A0001AF0BA95C9F714C0B13091F00E94F81037
:1020B000B1E008950C94F810672F782F8827B85F47
:1020C00039F0B93FCCF3869577956795B395D9F7F5
:1020D0003EF490958095709561957F4F8F4F9F4FFF
:1020E0000895E89409C097FB3EF49095809570950B
:1020F00061957F4F8F4F9F4F9923A9F0F92F96E954
:10210000BB279395F695879577956795B795F111C8
:10211000F8CFFAF4BB0F11F460FF1BC06F5F7F4F65
:102120008F4F9F4F16C0882311F096E911C0772377
:1021300021F09EE8872F762F05C0662371F096E880
:10214000862F70E060E02AF09A95660F771F881F4F
:10215000DAF7880F9695879597F9089597F99F670D
:1021600080E870E060E008959FEF80EC089500241F
:102170000A941616170618060906089500240A94EC
:1021800012161306140605060895092E0394000C72
:1021900011F4882352F0BB0F40F4BF2B11F460FF01
:1021A00004C06F5F7F4F8F4F9F4F089557FD90582A
:1021B000440F551F59F05F3F71F04795880F97FB0B
:1021C000991F61F09F3F79F08795089512161306C5
:1021D0001406551FF2CF4695F1DF08C016161706F4
:1021E0001806991FF1CF8695710561050894089529
:1021F000E894BB2766277727CB0197F90895991BA9
:1022000079E004C0991F961708F0961B881F7A95ED
:10221000C9F780950895EE0FFF1F881F8BBF0790A9
:10222000F691E02D1994F894FFCF393A3805060459
:10223000404142000E0FEA02EA02EA02EA02EA0222
:10224000EA02EA02EA0255440000000079086C0143
:10225000EC02EB02000000008D039103950347613F
:1022600073204C6576656C3A20005341464520004A
:10227000415454454E54494F4E20200044414E474E
:0622800045522020000081
:020000040003F7
:10E000000D9489F10D94B2F10D94B2F10D94B2F129
:10E010000D94B2F10D94B2F10D94B2F10D94B2F1F0
:10E020000D94B2F10D94B2F10D94B2F10D94B2F1E0
:10E030000D94B2F10D94B2F10D94B2F10D94B2F1D0
:10E040000D94B2F10D94B2F10D94B2F10D94B2F1C0
:10E050000D94B2F10D94B2F10D94B2F10D94B2F1B0
:10E060000D94B2F10D94B2F10D94B2F10D94B2F1A0
:10E070000D94B2F10D94B2F10D94B2F10D94B2F190
:10E080000D94B2F10D94B2F10D94B2F10D94B2F180
:10E090000D94B2F10D94B2F10D94B2F10D94B2F170
:10E0A0000D94B2F10D94B2F10D94B2F10D94B2F160
:10E0B0000D94B2F10D94B2F10D94B2F10D94B2F150
:10E0C0000D94B2F10D94B2F10D94B2F10D94B2F140
:10E0D0000D94B2F10D94B2F10D94B2F10D94B2F130
:10E0E0000D94B2F141546D656761323536300041AF
:10E0F000726475696E6F206578706C6F72657220DE
:10E1000073746B3530305632206279204D4C530099
:10E11000426F6F746C6F616465723E004875683F52
:10E1200000436F6D70696C6564206F6E203D200048
:10E130004350552054797065202020203D20005FF9
:10E140005F4156525F415243485F5F3D2000415658
:10E1500052204C696243205665723D20004743437C
:10E160002056657273696F6E203D20004350552024
:10E1700049442020202020203D20004C6F7720663D
:10E18000757365202020203D20004869676820665F
:10E190007573652020203D200045787420667573D6
:10E1A00065202020203D20004C6F636B2066757336
:10E1B000652020203D20004D617220203720323024
:10E1C000313300312E362E3800342E332E350056A2
:10E1D00023202020414444522020206F7020636F70
:10E1E00064652020202020696E73747275637469E1
:10E1F0006F6E2061646472202020496E74657272B3
:10E20000757074006E6F20766563746F7200726A49
:10E210006D702020006A6D70200057686174207056
:10E220006F72743A00506F7274206E6F7420737541
:10E2300070706F72746564004D7573742062652030
:10E2400061206C6574746572002000577269747483
:10E25000696E672045450052656164696E672045B7
:10E26000450045452065727220636E743D00504F35
:10E27000525400303D5A65726F2061646472003FF1
:10E280003D43505520737461747300403D454550C3
:10E29000524F4D207465737400423D426C696E6B41
:10E2A000204C454400453D44756D70204545505215
:10E2B0004F4D00463D44756D7020464C415348001B
:10E2C000483D48656C70004C3D4C69737420492F83
:10E2D0004F20506F72747300513D51756974005234
:10E2E0003D44756D702052414D00563D73686F7707
:10E2F00020696E7465727275707420566563746FF0
:10E30000727300593D506F727420626C696E6B00BD
:10E310002A0011241FBECFEFD1E2DEBFCDBF01E046
:10E320000CBF12E0A0E0B2E0EEE1FDEF03E00BBFB6
:10E3300002C007900D92A030B107D9F712E0A0E01B
:10E34000B2E001C01D92AE30B107E1F70F9460F367
:10E350000D948DFE01E20EBF0FEF0DBF11241FBE05
:10E360000D9460F30D9400F020E030E040ED57E0B4
:10E3700005C0FA013197F1F72F5F3F4F2817390792
:10E38000C0F308959C01260F311DC901A0E0B0E043
:10E390002F5F3F4FABBFFC018791882361F08093D3
:10E3A000C6008091C00086FFFCCF8091C0008064D1
:10E3B0008093C000EACF08958DE08093C6008091DD
:10E3C000C00086FFFCCF8091C00080648093C000B5
:10E3D0008AE08093C6008091C00086FFFCCF8091C8
:10E3E000C00080648093C00008950F94C2F10F9420
:10E3F000DCF10895FC019081992359F09093C600B7
:10E400008091C00086FFFCCF8091C0008064809323
:10E41000C0003196992379F70895282F982F929567
:10E420009F70892F805D8A3308F0895F8093C600D2
:10E430008091C00086FFFCCF8091C00080648093F3
:10E44000C000822F8F70982F905D9A3308F0995FEB
:10E450009093C6008091C00086FFFCCF8091C000E1
:10E4600080648093C00008959C01FB01853691056E
:10E470001CF46330710594F0C90164E670E00F94F8
:10E480002EFE605D7F4F6093C6008091C00086FFC6
:10E49000FCCF8091C00080648093C0002B30310598
:10E4A00014F43297B4F0C90164E670E00F942EFEC4
:10E4B0006AE070E00F942EFE605D7F4F6093C600AF
:10E4C0008091C00086FFFCCF8091C0008064809363
:10E4D000C000C9016AE070E00F942EFEC0968093E0
:10E4E000C6008091C00086FFFCCF8091C000806490
:10E4F0008093C00008951F93182F8EE692EE60E07F
:10E500000F94C2F11093C6008091C00086FFFCCF2B
:10E510008091C00080648093C0000F94DCF11F9153
:10E5200008952F923F924F925F926F927F928F92B7
:10E530009F92AF92BF92CF92DF92EF92FF920F9392
:10E540001F93DF93CF93CDB7DEB762970FB6F894E2
:10E55000DEBF0FBECDBF382E622ECA01DB015C01CB
:10E560006D01772420E2222E2E010894411C511CBB
:10E570008BC081E0A81680E0B80681E0C80680E084
:10E58000D80628F0C601AA27BB270F940DF2BB2797
:10E59000AD2D9C2D8B2D0F940DF28A2D0F940DF225
:10E5A0002092C6008091C00086FFFCCF8091C00001
:10E5B00080648093C0009DE29093C6008091C0006B
:10E5C00086FFFCCF8091C00080648093C0002092C1
:10E5D000C6008091C00086FFFCCF8091C00080649F
:10E5E0008093C00019828601750188249924A1E0D6
:10E5F0003A1651F03A1620F0B2E03B1661F409C029
:10E600000BBFF701779007C0C7010F9477FE782EF4
:10E6100002C0F7017080872D0F940DF22092C60082
:10E620008091C00086FFFCCF8091C0008064809301
:10E63000C000872D8052F401EF70F0708F3520F408
:10E64000E40DF51D708204C0E40DF51D8EE280839B
:10E650000894E11CF11C011D111D0894811C911CE2
:10E6600090E18916910409F0C2CF80E190E0A0E02A
:10E67000B0E0A80EB91ECA1EDB1E198AC2010F9493
:10E68000FAF10F94DCF16A94662009F072CF629679
:10E690000FB6F894DEBF0FBECDBFCF91DF911F91B3
:10E6A0000F91FF90EF90DF90CF90BF90AF909F9031
:10E6B0008F907F906F905F904F903F902F90089534
:10E6C0002F923F924F925F926F927F928F929F9282
:10E6D000AF92BF92CF92DF92EF92FF920F931F9370
:10E6E000DF93CF93CDB7DEB7CD53D1400FB6F894BB
:10E6F000DEBF0FBECDBF01E20EBF0FEF0DBF94B75F
:10E70000F894A89514BE80916000886180936000A1
:10E7100010926000789493FF05C0E0910002F091A0
:10E7200001021995279A2F9A8091C00082608093E8
:10E73000C00080E18093C40088E18093C1000000A4
:10E74000EE24FF24870144E0A42EB12CCC24DD2448
:10E7500024C0C5010197F1F70894E11CF11C011DCB
:10E76000111D21E2E2162EE4F20620E0020720E06D
:10E77000120718F031E0C32ED12CC801B70127ECE5
:10E780003BE140E050E00F9441FE611571058105C9
:10E79000910519F485B1805885B98091C00087FD35
:10E7A00003C0C114D104A9F2A6014F5F5F4FC25E3E
:10E7B000DE4F59834883CE51D140C25EDE4F8881FF
:10E7C0009981CE51D140019711F00D9410FEC05D9A
:10E7D000DE4F19821882C053D14060E0C15DDE4F28
:10E7E0001882CF52D14088249924C35DDE4F19820C
:10E7F0001882CD52D140C05EDE4F188219821A8233
:10E800001B82C052D140CE5CDE4F188219821A8220
:10E810001B82C253D140EE24FF2487010BBFF701B6
:10E8200007911691C45CDE4F19830883CC53D14005
:10E830000D940BFEC25EDE4F28813981CE51D1404E
:10E840002130310509F52091C600C25EDE4F1982E4
:10E850001882CE51D14022C02F5F3F4F4F4F5F4FA4
:10E86000213082E138078AE7480780E0580780F0C6
:10E87000C45CDE4FE881F981CC53D140EF5FFF4F9C
:10E8800019F0EE27FF27099420E030E040E050E047
:10E890008091C00087FFE0CF2091C600C35DDE4FAE
:10E8A00048815981CD52D1404F5F5F4FC35DDE4FEC
:10E8B00059834883CD52D140213209F063C64A3092
:10E8C000510508F05FC60894811C911C53E0851621
:10E8D000910409F059C600E010E018C081E280936D
:10E8E000C6008091C00086FFFCCF8091C00080648C
:10E8F0008093C0002F5F3F4F2931310579F70F9486
:10E90000DCF10F5F1F4F0530110519F020E030E0FA
:10E91000E5CF10920A0210920B0210920C02109294
:10E920000D02109206021092070210920802109235
:10E930000902109202021092030210920402109235
:10E9400005028FEE90EE60E00F94F5F180E191EE1C
:10E9500060E00F94C2F18091C00087FFFCCF9091DE
:10E96000C600903608F09F759032B8F09093C600BC
:10E970008091C00086FFFCCF8091C00080648093AE
:10E98000C000A0E2A093C6008091C00086FFFCCF2B
:10E990008091C00080648093C000983409F4D7C18E
:10E9A0009934B8F4923409F459C1933458F490333B
:10E9B00019F1903308F4E3C59F33A1F1903409F0C5
:10E9C000DEC5BDC0953409F470C1963409F0D7C5D1
:10E9D00098C1923509F42BC2933538F49C3409F46C
:10E9E000F5C1913509F0CBC518C2963509F445C279
:10E9F000993509F0C4C567C483E792EE62E00F94CD
:10EA0000F5F110920602109207021092080210927D
:10EA1000090210920A0210920B0210920C0210923C
:10EA20000D0213C18FE792EE62E00F94F5F18FEEC5
:10EA300090EE60E00F94F5F181E291EE60E00F94CA
:10EA4000C2F187EB91EE60E00F94F5F180E391EE77
:10EA500060E00F94C2F184EE90EE60E00F94F5F167
:10EA60008FE391EE60E00F94C2F186E090E061E008
:10EA700070E00F9434F20F94DCF18DE591EE60E0DC
:10EA80000F94C2F189EC91EE60E00F94F5F18EE401
:10EA900091EE60E00F94C2F183EC91EE60E00F9490
:10EAA000F5F18CE691EE60E00F94C2F18EE10F94E7
:10EAB0000DF288E90F940DF281E00F940DF20F949E
:10EAC000DCF18BE791EE60E00F94C2F119E0E0E039
:10EAD000F0E010935700E4918E2F0F940DF20F94F5
:10EAE000DCF18AE891EE60E00F94C2F1E3E0F0E03F
:10EAF00010935700E4918E2F0F940DF20F94DCF1D8
:10EB000089E991EE60E00F94C2F1E2E0F0E0109349
:10EB10005700E4918E2F0F940DF20F94DCF188EAE8
:10EB200091EE60E00F94C2F1E1E0F0E01093570045
:10EB30001491812F0F940DF20F94DCF107CF8BE825
:10EB400092EE62E00F94F5F18BE492EE60E00F94A8
:10EB5000F5F10F94DCF100E010E019C0C8016F2D51
:10EB60000F947FFEFF2031F489E492EE60E00F9471
:10EB7000C2F10BC0F092C6008091C00086FFFCCFAE
:10EB80008091C00080648093C0000F5F1F4FC80158
:10EB900081519F41A0E0B0E0ABBFFC01F790BAE229
:10EBA000FB1621F0E2E000301E07C1F60F94DCF105
:10EBB0000F94DCF187E592EE60E00F94F5F10F948D
:10EBC000DCF1CC24DD2400E010E01EC0C8010F946D
:10EBD00077FEF82E882331F489E492EE60E00F94FA
:10EBE000C2F10BC08093C6008091C00086FFFCCFAD
:10EBF0008091C00080648093C000FE1419F00894D6
:10EC0000C11CD11C0F5F1F4FC80181519F41A0E063
:10EC1000B0E0ABBFFC01E790FAE2EF1621F022E092
:10EC20000030120799F60F94DCF10F94DCF182E6C4
:10EC300092EE60E00F94C2F1C60161E070E00F94C3
:10EC400034F20F94DCF10F94DCF110920202109276
:10EC50000302109204021092050278CE89E992EE26
:10EC600062E00F94F5F1279A2F9A16C02F9880E052
:10EC700090E0E0EDF7E03197F1F7019684369105E9
:10EC8000C1F72F9A80E090E0E0EDF7E03197F1F7DF
:10EC9000019684369105C1F78091C00087FFE6CFC9
:10ECA0008091C00087FFFCCF64C485EA92EE62E0E9
:10ECB0000F94F5F140910202509103026091040219
:10ECC0007091050281E020E10F9491F2809102029F
:10ECD00090910302A0910402B091050280509F4FD1
:10ECE000AF4FBF4F8093020290930302A0930402A0
:10ECF000B093050280509041A040B04008F426CE69
:10ED0000A4CF83EB92EE62E00F94F5F140910602FE
:10ED100050910702609108027091090280E020E1A1
:10ED20000F9491F28091060290910702A09108023F
:10ED3000B091090280509F4FAF4FBF4F80930602A2
:10ED400090930702A0930802B0930902FFCD80ECD4
:10ED500092EE62E00F94F5F183E792EE60E00F949B
:10ED6000F5F18FE792EE60E00F94F5F18BE892EE0B
:10ED700060E00F94F5F189E992EE60E00F94F5F10F
:10ED800085EA92EE60E00F94F5F183EB92EE60E09D
:10ED90000F94F5F180EC92EE60E00F94F5F187ECC2
:10EDA00092EE60E00F94F5F188ED92EE60E00F9442
:10EDB000F5F18FED92EE60E00F94F5F18AEE92EEB0
:10EDC00060E00F94F5F183E093EEBDCD87EC92EE19
:10EDD00062E00F94F5F181E40F947BF282E40F94EA
:10EDE0007BF283E40F947BF284E40F947BF285E45E
:10EDF0000F947BF286E40F947BF287E40F947BF20E
:10EE000088E40F947BF28AE40F947BF28BE40F94F6
:10EE10007BF28CE40F947BF299CD88ED92EE62E068
:10EE20000F94F5F1772473948824992409C48FED05
:10EE300092EE62E00F94F5F140910A0250910B02BC
:10EE400060910C0270910D0282E020E10F9491F22A
:10EE500080910A0290910B02A0910C02B0910D02D8
:10EE600080509F4FAF4FBF4F80930A0290930B0289
:10EE7000A0930C02B0930D0269CD8AEE92EE62E08F
:10EE80000F94F5F184EE90EE60E00F94F5F18FECC5
:10EE900091EE60E00F94F5F1662477244301CC5D98
:10EEA000DE4F19821882C452D140D401C301B695F5
:10EEB000A79597958795CA5DDE4F88839983AA8326
:10EEC000BB83C652D140CC5DDE4FA881B981C4520C
:10EED000D1401196CC5DDE4FB983A883C452D14096
:10EEE000CD0162E070E00F9434F2B0E2B093C6005E
:10EEF0008091C00086FFFCCF8091C0008064809329
:10EF0000C000EDE2E093C6008091C00086FFFCCF18
:10EF10008091C00080648093C000F0E2F093C6004E
:10EF20008091C00086FFFCCF8091C00080648093F8
:10EF3000C000CA5DDE4FE880F9800A811B81C6529D
:10EF4000D140BB27A12F902F8F2D0F940DF2CA5DBA
:10EF5000DE4F8881C652D1400F940DF2B0E2FB2EF5
:10EF6000F092C6008091C00086FFFCCF8091C00067
:10EF700080648093C0000DE30093C6008091C000C0
:10EF800086FFFCCF8091C00080648093C00010E2B7
:10EF90001093C6008091C00086FFFCCF8091C00016
:10EFA00080648093C0008BBEF3012791C65DDE4F65
:10EFB0002883CA52D140A22EBB24CC24DD2408943D
:10EFC000611C711C811C911C8BBEF3018791282E42
:10EFD0003324442455240894611C711C811C911C09
:10EFE0008BBEF3013791C55DDE4F3883CB52D140E4
:10EFF0000894611C711C811C911C8BBEF30147910C
:10F00000C45DDE4F4883CC52D140ADEFEA2EAFEF66
:10F01000FA2EAFEF0A2FAFEF1A2F6E0C7F1C801E57
:10F02000911E142D032DF22CEE24EA0CFB1C0C1D5A
:10F030001D1D0F940DF220E22093C6008091C000A8
:10F0400086FFFCCF8091C00080648093C000C65DC5
:10F05000DE4F8881CA52D1400F940DF230E23093D6
:10F06000C6008091C00086FFFCCF8091C000806404
:10F070008093C000C45DDE4F8881CC52D1400F9494
:10F080000DF240E24093C6008091C00086FFFCCFA5
:10F090008091C00080648093C000C55DDE4F888190
:10F0A000CB52D1400F940DF250E25093C6008091A4
:10F0B000C00086FFFCCF8091C00080648093C000B8
:10F0C0008FEFE8168FEFF80680E0080780E018075A
:10F0D00031F484E092EE60E00F94C2F1DFC0D80119
:10F0E000C7018070907CA070B0708050904CA040A0
:10F0F000B040D1F52FEF3FE340E050E0E222F322B1
:10F1000004231523CA5DDE4FA880B980CA80DB8046
:10F11000C652D140AE0CBF1CC01ED11EAA0CBB1CD7
:10F12000CC1CDD1C8EE092EE60E00F94C2F1BB2798
:10F13000A12F902F8F2D0F940DF28E2D0F940DF285
:10F1400030E23093C6008091C00086FFFCCF8091F2
:10F15000C00080648093C0004EE34093C60080915D
:10F16000C00086FFFCCF87C08EE09EEFA0E0B0E03D
:10F17000E822F9220A231B239CE0E91694E9F90608
:10F1800090E0090790E0190709F088C0C45DDE4FE0
:10F19000A881CC52D140EA2EFF2400E010E0102FCD
:10F1A0000F2DFE2CEE24C55DDE4FB881CB52D14031
:10F1B000EB0EF11C011D111DD601C501817090706F
:10F1C000A070B070DC0199278827E80EF91E0A1F8D
:10F1D0001B1F20EF30E040E050E0A222B322C42207
:10F1E000D52241E1AA0CBB1CCC1CDD1C4A95D1F7F1
:10F1F000EA0CFB1C0C1D1D1D81E090E0A0E0B0E0BE
:10F20000282239224A225B2235E1220C331C441C7D
:10F21000551C3A95D1F7E20CF31C041D151D57013E
:10F220006801AA0CBB1CCC1CDD1C85E192EE60E0E1
:10F230000F94C2F1C801AA27BB270F940DF2BB2778
:10F24000A12F902F8F2D0F940DF28E2D0F940DF274
:10F2500090E29093C6008091C00086FFFCCF809121
:10F26000C00080648093C000AEE3A093C60080918C
:10F27000C00086FFFCCF8091C00080648093C000F6
:10F28000C601AA27BB270F940DF2BB27AD2D9C2DDD
:10F290008B2D0F940DF28A2D0F940DF20F94DCF14B
:10F2A000CC5DDE4FE881F981C452D140F99709F471
:10F2B0004DCBF4E0EF2EF12C012D112D6E0C7F1CA7
:10F2C000801E911EF2CD83E093EE62E00F94F5F183
:10F2D0008AE192EE60E00F94C2F18091C00087FF56
:10F2E000FCCF1091C6001F751093C6008091C0001E
:10F2F00086FFFCCF8091C00080648093C0000F9493
:10F30000DCF1812F81548A3108F036C1163409F4BA
:10F3100095C0173490F4133409F44EC0143430F40B
:10F320001134F1F0123409F01DC130C0143409F465
:10F3300059C0153409F016C16BC01A3409F4C4C0A1
:10F340001B3438F4173409F48FC0183409F00AC19B
:10F35000A1C01B3409F4D2C01C3409F003C1E8C0B9
:10F360008FEF81B90DC082B1809582B980E090E0C5
:10F37000E0EDF7E03197F1F70196883C9105C1F790
:10F380008091C00087FFEFCF12B8EFC08FEF84B934
:10F390000DC085B1809585B980E090E0E0EDF7E0A3
:10F3A0003197F1F70196883C9105C1F78091C00033
:10F3B00087FFEFCF15B8D9C08FEF87B90DC088B1DF
:10F3C000809588B980E090E0E0EDF7E03197F1F7C3
:10F3D0000196883C9105C1F78091C00087FFEFCF6F
:10F3E00018B8C3C08FEF8AB90DC08BB180958BB9A7
:10F3F00080E090E0E0EDF7E03197F1F70196883C8E
:10F400009105C1F78091C00087FFEFCF1BB8ADC059
:10F410008FEF8DB90DC08EB180958EB980E090E0F0
:10F42000E0EDF7E03197F1F70196883C9105C1F7DF
:10F430008091C00087FFEFCF1EB897C08FEF80BBD1
:10F440000DC081B3809581BB80E090E0E0EDF7E0F6
:10F450003197F1F70196883C9105C1F78091C00082
:10F4600087FFEFCF11BA81C08FEF83BB0DC084B38C
:10F47000809584BB80E090E0E0EDF7E03197F1F714
:10F480000196883C9105C1F78091C00087FFEFCFBE
:10F4900014BA6BC08FEF809301010FC080910201FD
:10F4A00080958093020180E090E0E0EDF7E03197F5
:10F4B000F1F70196883C9105C1F78091C00087FF64
:10F4C000EDCF1092020151C08FEF809304010FC065
:10F4D0008091050180958093050180E090E0E0ED4A
:10F4E000F7E03197F1F70196883C9105C1F78091DB
:10F4F000C00087FFEDCF1092050137C08FEF8093DA
:10F5000007010FC08091080180958093080180E079
:10F5100090E0E0EDF7E03197F1F70196883C910536
:10F52000C1F78091C00087FFEDCF109208011DC088
:10F530008FEF80930A010FC080910B01809580931B
:10F540000B0180E090E0E0EDF7E03197F1F70196F4
:10F55000883C9105C1F78091C00087FFEDCF1092E4
:10F560000B0103C085E292EEEEC98091C00087FFD7
:10F57000FCCF8091C600EAC988E392EEE4C98CE131
:10F5800091EEE1C988249924933011F1943028F444
:10F59000913089F09230B8F408C0953061F195301F
:10F5A000F0F0963009F048C043C02B3109F042C951
:10F5B00091E06BE13FC96227C15DDE4F2883CF52E6
:10F5C000D14092E037C9B22FA0E0622793E032C960
:10F5D000822F90E0A82BB92B622794E02BC92E3004
:10F5E00009F039C3622795E0C05DDE4F19821882A9
:10F5F000C053D1401FC9E1E0F0E0EC0FFD1FC05D3A
:10F60000DE4F08811981C053D140E00FF11F2083E4
:10F610000F5F1F4FC05DDE4F19830883C053D14079
:10F6200062270A171B0709F005C9D80196E002C92D
:10F63000261709F010C303C0973009F0FBC87724E0
:10F640009981933109F412C19431C8F4963009F4C8
:10F65000D8C0973050F4923009F406C1933009F4C1
:10F660006DC0913009F059C253C0913109F477C08F
:10F67000923108F0BBC0903109F04FC2F5C098310B
:10F6800009F487C0993150F4953109F4EFC09531F0
:10F6900008F4C6C1963109F040C2C2C19A3109F4DA
:10F6A0006CC09A3108F491C09B3109F45BC09D3164
:10F6B00009F033C29D81903359F48F81882311F46E
:10F6C0009EE11CC0813011F091E018C098E916C08D
:10F6D000892F807591F0903539F4E0E0F0E089E011
:10F6E0008093570094910AC0983539F4E3E0F0E034
:10F6F00089E080935700949101C090E01A821B82A8
:10F700008D818C831D829E831F8227E030E009C299
:10F710001A8288E08B8381E48C8386E58D8382E581
:10F720008E8389E48F8383E5888780E589878FE5E9
:10F730008A8782E38B872BE030E0F3C18A818139AD
:10F7400041F0823941F0803911F48FE005C080E04A
:10F7500003C082E001C08AE01A828B8344C0772410
:10F76000739482C08D81882311F48EE12CC0813086
:10F7700011F081E028C088E926C01A82E1E0F0E0BB
:10F7800089E08093570084918B831C8224E030E0D1
:10F79000C8C18B81803589F48C81883039F4E2E0EE
:10F7A000F0E089E08093570084910DC0E0E0F0E044
:10F7B00089E080935700849106C0E3E0F0E089E09F
:10F7C0008093570084911A82DFCF8D81836C99E0FA
:10F7D000E1E0F0E0082E90935700E89507B600FCB2
:10F7E000FDCF1A821B8223E030E09BC180EC8A832C
:10F7F000CE5CDE4F188219821A821B82C253D1401E
:10F800008EC18A8190E0A0E0B0E0582F44273327D2
:10F8100022278B8190E0A0E0B0E0DC0199278827C7
:10F82000282B392B4A2B5B2B8D8190E0A0E0B0E098
:10F83000282B392B4A2B5B2B8C8190E0A0E0B0E089
:10F84000BA2FA92F982F8827282B392B4A2B5B2BCF
:10F85000220F331F441F551FC05EDE4F288339839C
:10F860004A835B83C052D1401A8259C13A81C95C34
:10F87000DE4F3883C753D140CA5CDE4F1882C6536F
:10F88000D1408B81C82EDD24CA5CDE4F488159816E
:10F89000C653D140C42AD52A933109F082C0CE5C28
:10F8A000DE4F88819981AA81BB81C253D1408050AB
:10F8B000904CA340B04030F583E0CE5CDE4FE88052
:10F8C000F9800A811B81C253D140F70100935B008C
:10F8D00080935700E89507B600FCFDCFCE5CDE4F65
:10F8E000088119812A813B81C253D14000501F4FAA
:10F8F0002F4F3F4FCE5CDE4F088319832A833B8313
:10F90000C253D140C05EDE4F488159816A817B81FC
:10F91000C052D140DE011B9631E08C9111962C91A2
:10F9200011971296C75CDE4F2883C953D140C85C3B
:10F93000DE4F1882C853D14090E0C85CDE4FE881AA
:10F94000F981C853D1408E2B9F2B0C01FA01609393
:10F950005B0030935700E89511244E5F5F4F6F4F67
:10F960007F4F0EEFE02E0FEFF02ECE0CDF1CC114F8
:10F97000D10499F685E0C05EDE4F088119812A81A5
:10F980003B81C052D140F80120935B008093570027
:10F99000E89507B600FCFDCF81E180935700E8951C
:10F9A00035C0C05EDE4F88819981AA81BB81C0527B
:10F9B000D140B695A795979587957C018601ABE0D8
:10F9C000AA2EB12CAC0EBD1E0BC0D5016D915D01F0
:10F9D000C7010F947FFE0894E11CF11C01501040F8
:10F9E0000115110591F7A60160E070E0440F551F65
:10F9F000661F771FC05EDE4FE880F9800A811B8199
:10FA0000C052D1404E0D5F1D601F711F1A82C05E33
:10FA1000DE4F488359836A837B83C052D1407FC0C5
:10FA2000FA80C55CDE4FF882CB53D140C65CDE4F16
:10FA30001882CA53D1408B81C82EDD24C65CDE4FAC
:10FA400008811981CA53D140C02AD12A1A828981DA
:10FA5000BE016D5F7F4F843121F59601C05EDE4FA0
:10FA6000E880F9800A811B81C052D1400BBFF701A9
:10FA700087919691DB018C9311969C936E5F7F4FDB
:10FA8000D801C7010296A11DB11DC05EDE4F88835B
:10FA90009983AA83BB83C052D14022503040F1F6F3
:10FAA00036C0C05EDE4F288139814A815B81C052F9
:10FAB000D1400894C108D108760100E010E0089414
:10FAC000C11CD11C0894E11CF11C011D111DE20E8A
:10FAD000F31E041F151F21BDBB27A52F942F832FB5
:10FAE00082BD2F5F3F4F4F4F5F4FF89A80B5DB01CC
:10FAF0008D93BD012E153F054007510761F7C05E8C
:10FB0000DE4F288339834A835B83C052D1409601FC
:10FB10002D5F3F4FFB01108204C080EC8A8322E0FE
:10FB200030E08BE18093C6008091C00086FFFCCF5F
:10FB30008091C00080648093C000C15DDE4FF88179
:10FB4000CF52D140F093C6008091C00086FFFCCF19
:10FB50008091C00080648093C000432F3093C60022
:10FB60008091C00086FFFCCF8091C00080648093AC
:10FB7000C000922F2093C6008091C00086FFFCCF6A
:10FB80008091C00080648093C0008EE08093C600A6
:10FB90008091C00086FFFCCF8091C000806480937C
:10FBA000C00065E1C15DDE4FE880CF52D1406E25D7
:10FBB00069276427FE01319610C090819093C6009A
:10FBC0008091C00086FFFCCF31968091C000806498
:10FBD0008093C0006927215030402115310569F715
:10FBE0006093C6008091C00086FFFCCF8091C0006A
:10FBF00080648093C00085B1805885B9772081F4F6
:10FC0000C15DDE4F0881CF52D1400F5FC15DDE4F35
:10FC10000883CF52D14090E0A0E0B0E00D941AF4F8
:10FC200027982F9880E090E020ED37E0F901319798
:10FC3000F1F7019684369105C9F700008091C00064
:10FC40008D7F8093C00081E180935700E895EE2777
:10FC5000FF270994FFCF90E00D941AF497FB092E2B
:10FC600007260AD077FD04D02ED006D000201AF443
:10FC7000709561957F4F0895F6F7909581959F4F08
:10FC80000895A1E21A2EAA1BBB1BFD010DC0AA1FDD
:10FC9000BB1FEE1FFF1FA217B307E407F50720F0F5
:10FCA000A21BB30BE40BF50B661F771F881F991F70
:10FCB0001A9469F760957095809590959B01AC01B9
:10FCC000BD01CF010895AA1BBB1B51E107C0AA1FAC
:10FCD000BB1FA617B70710F0A61BB70B881F991FED
:10FCE0005A95A9F780959095BC01CD010895F99991
:10FCF000FECF92BD81BDF89A992780B50895262F31
:10FD0000F999FECF1FBA92BD81BD20BD0FB6F89400
:0EFD1000FA9AF99A0FBE01960895F894FFCF63
:00000001FF
