:100000000C9439010C94F6090C94CB090C94A009BA
:100010000C9475090C944A090C941F090C94F4086B
:100020000C94C9080C946A010C946A010C946A013E
:100030000C946A010C946A010C946A010C946A0194
:100040000C946A010C94AB0A0C946A010C946A013A
:100050000C946A010C946A010C946A010C947F0858
:100060000C946A010C946A010C946A010C946A0164
:100070000C946A010C946A010C946A010C946A0154
:100080000C947D0A0C946A010C946A010C946A0128
:100090000C946A010C946A010C946A010C946A0134
:1000A0000C946A010C946A010C944F0A0C946A0136
:1000B0000C946A010C946A010C946A010C94210A54
:1000C0000C946A010C946A010C946A010C946A0104
:1000D0000C946A010C946A010C946A010C946A01F4
:1000E0000C946A010C9491030C9479080C94F2011D
:1000F0000C94000F0C94B7010C94EA020C94EB02E0
:100100000C94FC010C94C5010C94BD010C94F801F5
:100110000C94A6050C94EA010C94F7010C94DC01F4
:100120000C94CC010C94D6010C94C9010C946C0174
:100130000C94EC020C94E4010C9495030C94EE01E5
:100140000C94C1010C94E0010C948D030C94D20129
:1001500000002100240027002A002D003000330079
:1001600001010000040107010A010000220025002E
:1001700028002B002E003100340002010000050190
:1001800008010B0100000A0B02090C0D0E08070301
:10019000040100000000000000000000000000005A
:1001A000000000000000000000000000000000004F
:1001B000121110000000000000000000000000000C
:1001C00000000000000000000000000020002300EC
:1001D000260029002C002F0032000001000003013E
:1001E00006010901050505050705080808080202BA
:1001F00002020A0A080804040404010101010101C1
:1002000001010303030303030303040707070C0CA3
:100210000C0C0C0C0C0C020202020606060606066A
:1002200006060B0B0B0B0B0B0B0B0102102020080F
:100230000810204010204080020102010804020141
:1002400001020408102040808040201008040201B0
:100250008004020180402010080402010804020109
:100260000102040810204080010204081020408090
:10027000000F11241FBECFEFD1E2DEBFCDBF00E0E3
:100280000CBF12E0A0E0B2E0EAE2F2E200E00BBF55
:1002900002C007900D92A036B107D9F724E0A0E67E
:1002A000B2E001C01D92A23EB207E1F711E0C9E33E
:1002B000D1E000E006C021970109802FFE010E94D5
:1002C0000B11C833D10780E00807A9F70E94EC0B97
:1002D0000C9413110C940000AF92BF92CF92DF9256
:1002E000EF92FF920F931F93CF93DF936C017B01EB
:1002F0008B01040F151FEB015E01AE18BF08C0177C
:10030000D10759F06991D601ED91FC910190F081EE
:10031000E02DC6011995892B79F7C501DF91CF91A1
:100320001F910F91FF90EF90DF90CF90BF90AF9013
:1003300008958150823108F05AC0E82FF0E08827F4
:10034000EB55FE4F8F4F0C940B11C501C901B7013E
:10035000BD01C101F701CC01D201D601DC01E001F0
:10036000E401EA01EE01F701F201F801FC018091DC
:1003700080008F77809380000895809180008F7D2A
:10038000F9CF80918000877FF5CF84B58F7784BDCA
:10039000089584B58F7DFBCF8091B0008F778093D7
:1003A000B00008958091B0008F7DF9CF80919000CA
:1003B0008F77809390000895809190008F7DF9CF82
:1003C00080919000877FF5CF8091A0008F778093F8
:1003D000A00008958091A0008F7DF9CF8091A000AA
:1003E000877FF5CF809120018F778093200108953A
:1003F000809120018F7DF9CF80912001877FF5CFFB
:10040000CF93DF93282F30E0F901EC57FE4F849112
:10041000F901E65DFD4FD491F901EC51FE4FC49115
:10042000CC23A1F081110E949901EC2FF0E0EE0F96
:10043000FF1FE653FE4FA591B491EC91ED2381E0AF
:1004400090E009F480E0DF91CF91089580E090E0A2
:10045000FACF1F93CF93DF93282F30E0F901EC57A9
:10046000FE4F8491F901E65DFD4FD491F901EC5105
:10047000FE4FC491CC23A9F0162F81110E9499013F
:10048000EC2FF0E0EE0FFF1FE659FE4FA591B4915F
:100490008FB7F894EC91111108C0D095DE23DC934E
:1004A0008FBFDF91CF911F910895DE2BF8CFCF93AF
:1004B000DF9390E0FC01E65DFD4F24918C519E4F4F
:1004C000FC0184918823C9F090E0880F991FFC01FA
:1004D000E05BFE4FA591B491FC01E659FE4FC5913A
:1004E000D49161110DC09FB7F8948C91209582230F
:1004F0008C938881282328839FBFDF91CF91089513
:10050000623051F49FB7F8943C91822F80958323F9
:100510008C93E8812E2BEFCF8FB7F894EC912E2B94
:100520002C938FBFEACF3FB7F8948091FA02909155
:10053000FB02A091FC02B091FD0226B5A89B05C06C
:100540002F3F19F00196A11DB11D3FBFBA2FA92F52
:10055000982F8827BC01CD01620F711D811D911D4F
:1005600042E0660F771F881F991F4A95D1F70895BB
:100570008F929F92AF92BF92CF92DF92EF92FF92B3
:100580004B015C010E9493026B017C010E9493026B
:100590006C197D098E099F09683E7340810591059C
:1005A000A8F321E0821A9108A108B10888EEC80ECC
:1005B00083E0D81EE11CF11C81149104A104B10454
:1005C00029F7FF90EF90DF90CF90BF90AF909F9072
:1005D0008F9008950895089590E080E00895CF9356
:1005E000DF93DC0126E0629FA00DB11D11249096DF
:1005F0005C934E935F9721E091962C939197FC0129
:10060000E359FF4F0190F081E02DEC01C459DF4F19
:100610002881222341F0309719F0DC01662329F06C
:10062000DF91CF9108953097D9F35C968C91DF914B
:10063000CF911994CF92DF92EF92FF920F931F9375
:10064000CF93DF93FC0126E0629FE00DF11D1124A2
:1006500011A2278D30A12130310559F188F02230C7
:10066000310509F452C02330310509F453C0DF913C
:10067000CF911F910F91FF90EF90DF90CF90089551
:100680004423A9F3EC0141E050E00E94EF022FB7B0
:10069000F8948091F6029091F702A091F802B0913F
:1006A000F9022FBFC85ADF4F88839983AA83BB837F
:1006B000DECF2FB7F894C090F602D090F702E0900A
:1006C000F802F090F9022FBFFC01E85AFF4F0081B9
:1006D000118122813381C01AD10AE20AF30A72968B
:1006E0000081118130E020E00C151D052E053F052D
:1006F00060F442E050E0DF91CF911F910F91FF90A5
:10070000EF90DF90CF900C94EF024111B0CF43E017
:1007100050E0F1CF50E040E0EECF862F642F0C94F4
:100720005702862F642F0C942902862F0C94000206
:100730002F923F924F925F926F927F928F929F92F1
:10074000AF92BF92CF92DF92EF92FF920F931F93DF
:10075000CF93DF93CDB7DEB72C970FB6F894DEBFFB
:100760000FBECDBF9C0124593F4F3A83298321E01E
:10077000A981BA812C934FB7F8940091F602109199
:10078000F7022091F8023091F9024FBFFC01E45AC0
:10079000FF4FFC83EB834081518162817381041B95
:1007A000150B260B370B3C964081518170E060E0C1
:1007B000401751076207730708F059C19C878B8760
:1007C00010E06C01F6E6CF0ED11C7C0122E6E20EB1
:1007D000F11CD6018C91181758F4D701ED91FC91BA
:1007E000E10FF11D62E080810E9457021F5FF1CF8F
:1007F000312C4B845C84B7E64B0E511CEB84FC849B
:10080000E4E6EE0EF11C812C912C540183942B858F
:100810003C852E593F4F3A872987D2018C91381653
:1008200008F063C0032D10E0D701ED91FC91E00FBB
:10083000F11F61E080810E945702D701ED91FC9188
:10084000E00FF11F60E080810E942902D501C40100
:10085000032C04C0880F991FAA1FBB1F0A94D2F74C
:100860009E838D83FC01E095F095F887EF83212C22
:10087000D6018C91281620F5622C712CA985BA8599
:10088000ED91FC91E60DF71D80810E940002660C3F
:10089000771CEB85FC85E60DF71D892B51F48085CF
:1008A00091852D813E81822B932B91878087239484
:1008B000DFCF808591854F81588584239523F5CF9F
:1008C000D701ED91FC91E00FF11F61E080810E9462
:1008D0002902F70180819181080F191F60E0D8017A
:1008E0008C910E945702339498CF0B851C85C801C8
:1008F000CC9678012FEF3FEFF701478D50A1452BA4
:1009000021F4148E368F258F11A2F6E0EF0EF11C24
:10091000E816F90689F7912CAB84BC8420E6A20E78
:10092000B11C96E0392ED6018C91981608F059C06A
:10093000812C692C712CB4E06B0E711C660C771C39
:10094000EB85FC856E0E7F1ED2018C91881608F017
:1009500046C0F30140815181082C02C0569547954D
:100960000A94E2F7989EC0011124880D911DEB8531
:10097000FC8560E0258D368D8217930709F47CC0D5
:100980006F5F36966A30B1F740FF27C0EB85FC8574
:1009900070E060E0248D21111AC0D501ED91FC9129
:1009A000E80FF91F2081369EF001379EF00D1124CB
:1009B0004B855C85E40FF51F248F968F858F10A2E1
:1009C000178E41E08B859C850E941A0306C06F5FDD
:1009D0007F4F36966A307105E9F68394B5CF9394CC
:1009E000A2CF80E0D80191969C919111892F0A5F46
:1009F0001F4FE016F106B1F79FB7F8944091F60249
:100A00005091F7026091F8027091F9029FBFEB815B
:100A1000FC814083518362837383882341F1AB85DA
:100A2000BC8591968C919197882309F15F968D9161
:100A30009C9190970197D9F45C968C912C960FB667
:100A4000F894DEBF0FBECDBFDF91CF911F910F9104
:100A5000FF90EF90DF90CF90BF90AF909F908F90DE
:100A60007F906F905F904F903F902F900895E98115
:100A7000FA81108280E0E2CF4170A4CF8F929F92E2
:100A8000AF92BF92FF920F931F93CF93DF93FC011E
:100A9000F0808FE28F1508F44FC0828108E512E0E4
:100AA000081B110987FD1395000F111F000F111F5F
:100AB0008181C8E8D0E0C81BD10987FDD395CC0F50
:100AC000DD1FCC0FDD1F4E010D2E000CAA08BB0848
:100AD000DB01653B710514F0A4EBB0E09801012E39
:100AE000000C440B550B281939094A095B090E946F
:100AF000900F24EB30E040E050E00E94660F820E41
:100B0000931EA41EB51E8C169D062CF0E8018016BF
:100B100091060CF4E4012297CC0FDD1F2FB7F89457
:100B20008F2D90E0FC01EE0FFF1FE80FF91FEB592E
:100B3000FD4FD283C1832FBFDF91CF911F910F91C2
:100B4000FF90BF90AF909F908F90089570E060E00D
:100B500087E594E00E943E0570E060E084EE93E05B
:100B60000E943E0570E060E081E793E00E943E0550
:100B700070E060E08EEF92E00E943E0561E087E069
:100B80000C9429021F93CF93DF93EC01162F8881D9
:100B9000803308F04EC061E0812F0E9457028881A7
:100BA000282F30E0F901EE0FFF1FE20FF31FEB5982
:100BB000FD4F1F736081607C612B608319821A82F4
:100BC0002CE0622F0E94FF10829FB001112430E0C0
:100BD00020E0AB01420F531FFA01EE0FFF1FE40F9D
:100BE000F51FEB59FD4F908196FD16C02F5F3F4FCB
:100BF0002C30310571F7813009F51092800082E0C8
:100C0000809381001092850010928400B19A8091A7
:100C10006F00826080936F00E8818E2F90E0FC016E
:100C2000EE0FFF1FE80FF91FEB59FD4F8081806425
:100C300080838881DF91CF911F910895823061F484
:100C40001092900080939100109295001092940061
:100C500088BB80937100E0CF833069F41092A000CC
:100C600082E08093A1001092A5001092A40089BB9D
:100C700080937200D1CF8111CFCF1092200182E0FA
:100C80008093210110922501109224018ABB809348
:100C90007300C2CFAF92BF92CF92DF92EF92FF92DA
:100CA0000F931F93CF93DF936B017A01EC01C05A2E
:100CB000DD4F28813CE0389F8001399F100D1124C1
:100CC000A0906402B12C27FF1FC0FB01118210828B
:100CD00088818F5F888388819801280F311D87FD67
:100CE0003A95F6012A153B051CF488818C30C4F135
:100CF00080819181049680349C4908F473C0F60188
:100D000080819181049670C088819801280F311DDF
:100D100087FD3A952A153B05DCF68881A801480F26
:100D2000511D87FD5A95FA01EE0FFF1FE40FF51FC5
:100D3000EB59FD4F808186FFCBCF8881F801E80F0A
:100D4000F11D87FDFA95CF01EE0FFF1FE80FF91F88
:100D5000EB59FD4F808160E08F730E942902B8CF6C
:100D6000808191812881A801420F511D27FD5A954C
:100D70009A01FA01EE0FFF1FE20FF31FEB59FD4F2F
:100D800021813281820F931FF701918380838881B3
:100D90009801280F311D87FD3A95F901EE0FFF1FCD
:100DA000E20FF31FEB59FD4F808186FF22C088813F
:100DB000080F111D87FD1A95F801EE0FFF1FE00FB8
:100DC000F11FEB59FD4F808161E08F73DF91CF916F
:100DD0001F910F91FF90EF90DF90CF90BF90AF9059
:100DE0000C94290280E49CE9F701918380838FEFC2
:100DF0008883DF91CF911F910F91FF90EF90DF904B
:100E0000CF90BF90AF9008950F931F9390E0FC0197
:100E1000E65DFD4F6491FC01EC51FE4FE491F0E082
:100E2000EE0FFF1FE653FE4F8591949100E412E40C
:100E30002FE030E0462F0E94D90A61157105810527
:100E4000910529F06F5F7F4F8F4F9F4F9F701F91CC
:100E50000F910895FC0101900020E9F73197AF014F
:100E6000481B590BBC018AEC94E00C946C01CF93A5
:100E7000DF93EC0160E08E810E94290261E08E81A7
:100E80000E94290260E08E810E9429028BE891E095
:100E90000197F1F7DF91CF910895CF92DF92EF9212
:100EA000FF920F931F93CF93DF936C017C0187E038
:100EB000E80EF11CD0E0C0E0062F10E0B8010C2EC7
:100EC00002C0759567950A94E2F76170F701819108
:100ED0007F010E9429022196C430D10579F7C6010D
:100EE000DF91CF911F910F91FF90EF90DF90CF9006
:100EF0000C943707CF92DF92EF92FF920F931F93DC
:100F0000CF93DF93EC01F62E642F8C810E9429028F
:100F10008D818F3F19F060E00E9429020F2D10E0B3
:100F20008F8584FF25C06E0187E0C80ED11CF12C8F
:100F3000E12CB8010E2C02C0759567950A94E2F772
:100F40006170F60181916F010E942902FFEFEF1A93
:100F5000FF0A88E0E816F10461F7CE01DF91CF9136
:100F60001F910F91FF90EF90DF90CF900C94370777
:100F7000B80184E0759567958A95E1F7CE010E94E6
:100F80004D076F2DCE01DF91CF911F910F91FF90F3
:100F9000EF90DF90CF900C944D0740E0682F8AECE3
:100FA00094E00C947A07CF93DF93823029F49091E8
:100FB000D90498609093D9048093DD041092DE04E4
:100FC00080E48093DF0480E18093E00480E58093F7
:100FD000E10461E08091CE040E9457028091CF0429
:100FE0008F3F19F061E00E94570261E08091D004C8
:100FF0000E945702CAECD4E09E012A5C34408091E2
:10100000D90484FD0BC084E090E0219628173907AD
:1010100044F461E08E810E945702EECF88E090E0B8
:10102000F4CF8BE39DE00197F1F760E08091CE046F
:101030000E94290260E08091D0040E9429028091E0
:10104000CF048F3F19F060E00E9429028091D904FB
:1010500084FD39C063E08AEC94E00E944D07CBE444
:10106000D6E4CE010197F1F763E08AEC94E00E94A8
:101070004D072197F1F763E08AEC94E00E944D0759
:1010800083E592E00197F1F762E08AEC94E00E9438
:101090004D078091D90480620E94CD0784E080933F
:1010A000DA048CE00E94CD0781E00E94CD078BE33B
:1010B0009FE10197F1F782E08093DB0486E0DF9106
:1010C000CF910C94CD0780620E94CD078BE496E40B
:1010D0000197F1F78091D90480620E94CD0783E5E2
:1010E00092E00197F1F78091D90480620E94CD07C8
:1010F000D0CF41E00E947A0781E090E008951F92EE
:101100000F920FB60F9211242F933F938F939F93BB
:10111000AF93BF938091F6029091F702A091F802ED
:10112000B091F9023091F50223E0230F2D3758F5E5
:101130000196A11DB11D2093F5028093F6029093B4
:10114000F702A093F802B093F9028091FA0290910D
:10115000FB02A091FC02B091FD020196A11DB11D00
:101160008093FA029093FB02A093FC02B093FD02DD
:10117000BF91AF919F918F913F912F910F900FBE93
:101180000F901F90189526E8230F0296A11DB11D00
:10119000D2CF1F920F920FB60F9211240BB60F925F
:1011A0002F933F934F935F936F937F938F939F936F
:1011B000AF93BF93EF93FF93E0911A02F0911B025C
:1011C0001995FF91EF91BF91AF919F918F917F9171
:1011D0006F915F914F913F912F910F900BBE0F90A8
:1011E0000FBE0F901F9018951F920F920FB60F927F
:1011F00011240BB60F922F933F934F935F936F93EE
:101200007F938F939F93AF93BF93EF93FF93E0915F
:101210001802F09119021995FF91EF91BF91AF91CA
:101220009F918F917F916F915F914F913F912F91FE
:101230000F900BBE0F900FBE0F901F9018951F922E
:101240000F920FB60F9211240BB60F922F933F936C
:101250004F935F936F937F938F939F93AF93BF93BE
:10126000EF93FF93E0910E02F0910F021995FF9119
:10127000EF91BF91AF919F918F917F916F915F910E
:101280004F913F912F910F900BBE0F900FBE0F907B
:101290001F9018951F920F920FB60F9211240BB644
:1012A0000F922F933F934F935F936F937F938F93FF
:1012B0009F93AF93BF93EF93FF93E0910C02F09154
:1012C0000D021995FF91EF91BF91AF919F918F9171
:1012D0007F916F915F914F913F912F910F900BBE36
:1012E0000F900FBE0F901F9018951F920F920FB680
:1012F0000F9211240BB60F922F933F934F935F934E
:101300006F937F938F939F93AF93BF93EF93FF93CD
:10131000E0911602F09117021995FF91EF91BF919C
:10132000AF919F918F917F916F915F914F913F917D
:101330002F910F900BBE0F900FBE0F901F9018951E
:101340001F920F920FB60F9211240BB60F922F938C
:101350003F934F935F936F937F938F939F93AF933D
:10136000BF93EF93FF93E0911402F091150219954A
:10137000FF91EF91BF91AF919F918F917F916F916D
:101380005F914F913F912F910F900BBE0F900FBE29
:101390000F901F9018951F920F920FB60F92112465
:1013A0000BB60F922F933F934F935F936F937F935F
:1013B0008F939F93AF93BF93EF93FF93E0911202AC
:1013C000F09113021995FF91EF91BF91AF919F9109
:1013D0008F917F916F915F914F913F912F910F90DE
:1013E0000BBE0F900FBE0F901F9018951F920F927B
:1013F0000FB60F9211240BB60F922F933F934F937A
:101400005F936F937F938F939F93AF93BF93EF936C
:10141000FF93E0911002F09111021995FF91EF9165
:10142000BF91AF919F918F917F916F915F914F91FC
:101430003F912F910F900BBE0F900FBE0F901F90FA
:1014400018951F920F920FB60F9211240BB60F92A0
:101450002F933F934F935F936F937F938F939F93BC
:10146000AF93BF93EF93FF9348E251E064E271E0E2
:1014700090E080E00E944A06FF91EF91BF91AF910A
:101480009F918F917F916F915F914F913F912F919C
:101490000F900BBE0F900FBE0F901F9018951F92CC
:1014A0000F920FB60F9211240BB60F922F933F930A
:1014B0004F935F936F937F938F939F93AF93BF935C
:1014C000EF93FF9348EA50E064EA70E083E090E035
:1014D0000E944A06FF91EF91BF91AF919F918F912A
:1014E0007F916F915F914F913F912F910F900BBE24
:1014F0000F900FBE0F901F9018951F920F920FB66E
:101500000F9211240BB60F922F933F934F935F933B
:101510006F937F938F939F93AF93BF93EF93FF93BB
:1015200048E950E064E970E082E090E00E944A06F9
:10153000FF91EF91BF91AF919F918F917F916F91AB
:101540005F914F913F912F910F900BBE0F900FBE67
:101550000F901F9018951F920F920FB60F921124A3
:101560000BB60F922F933F934F935F936F937F939D
:101570008F939F93AF93BF93EF93FF9348E850E00F
:1015800064E870E081E090E00E944A06FF91EF91EC
:10159000BF91AF919F918F917F916F915F914F918B
:1015A0003F912F910F900BBE0F900FBE0F901F9089
:1015B0001895CF92DF92EF92FF920F931F93E82F2F
:1015C000F92F05C0015011092109310961F19081FC
:1015D00096239417B9F305C0015011092109310967
:1015E00011F1908196239413F7CFC12CD12CE12CCB
:1015F000F12C0AC08FEFC81AD80AE80AF80A0C15AD
:101600001D052E053F0579F080818623841791F30F
:101610006C2D7D2D8E2D9F2D1F910F91FF90EF90A2
:10162000DF90CF90089560E070E080E090E01F913F
:101630000F91FF90EF90DF90CF900895FC01128200
:101640001682158217828EE292E091838083DF01F9
:101650005C96CD01CC961C9214961C921E92139708
:1016600015961C9215971696A817B907A1F7DF01D2
:10167000AE59BF4F11967C936E93129611965C9360
:101680004E93129681E08C93119682E08C9317977B
:101690008CE192E011969C938E9318968AE090E0EC
:1016A00011969C938E93129684EF91E011969C93E1
:1016B0008E93139611961C921E9251971D921D9215
:1016C0001D921C921397E459FF4F108208958F9238
:1016D0009F92AF92BF92CF92DF92EF92FF92FC0166
:1016E000828158E5C52E52E0D52EC81AD10887FD53
:1016F000D394CC0CDD1CCC0CDD1C0D2C000CEE08A6
:10170000FF08818178E8872E912C881A910887FD3F
:101710009394880C991C880C991C092C000CAA081D
:10172000BB0880818F3FD1F190E0FC01EE0FFF1FDD
:10173000E80FF91FEB59FD4F8181928133E0880F4B
:10174000991F3A95E1F7B0E0A0E044E0B595A79580
:10175000979587954A95D1F702969C012F5F3F4F49
:10176000032E000C440B550B281939094A095B0953
:10177000A4EBB0E00E94850FA70196012819390952
:101780004A095B090E94660FC901FF90EF90DF9044
:10179000CF90BF90AF909F908F90089590E080E0A1
:1017A000DCCFFC0190916402903398F481E0890FC2
:1017B000809364029083892F90E0FC01EE0FFF1F5D
:1017C000E80FF91FEB59FD4F88EB9BE09283818373
:1017D00008958FEF80830895CF93DF93CDB7DEB761
:1017E000A1970FB6F894DEBF0FBECDBF789484B535
:1017F000826084BD84B5816084BD85B5826085BD0D
:1018000085B5816085BD80916E00816080936E009A
:10181000109281008091810082608093810080918C
:10182000810081608093810080918000816080933D
:1018300080008091B10084608093B1008091B000FD
:1018400081608093B00080919100826080939100CC
:1018500080919100816080939100809190008160DF
:10186000809390008091A10082608093A10080917C
:10187000A10081608093A1008091A000816080938D
:10188000A00080912101826080932101809121013B
:1018900081608093210180912001816080932001EB
:1018A00080917A00846080937A0080917A008260CF
:1018B00080937A0080917A00816080937A00809191
:1018C0007A00806880937A001092C10082E00E94C2
:1018D000D30761E087E00E94570266E170E087E588
:1018E00094E00E94C20565E370E084EE93E00E94FC
:1018F000C20569E070E081E793E00E94C20566E3FB
:1019000070E08EEF92E00E94C20561E08AE10E94E1
:10191000570260E088E10E94570261E08FE30E9475
:10192000570260E08EE30E94570261E088E00E9467
:10193000570260E08AE00E94570261E08DE30E9456
:10194000570260E08CE30E94570261E082E30E944C
:10195000570261E082E00E94570261E081E00E944C
:10196000570261E083E00E94570261E085E40E9433
:10197000570260E084E40E94570261E083E40E9421
:10198000570261E08DE00E94570260E08CE00E9407
:10199000570261E08BE00E94570286EA95E090933F
:1019A0000F0280930E0280916A00837F846080938F
:1019B0006A00ED9A2AE0422E512C612C712C809104
:1019C0007B00877F80937B0021E420937C008091C3
:1019D0007A00806480937A0080917A0086FDFCCF43
:1019E0008091780000917900102F082F61E087E046
:1019F0000E94290288E10E94000261E08AE10E94BF
:101A000029028EE30E94000261E08FE30E94290216
:101A10008AE00E94000261E088E00E9429028CE3D3
:101A20000E94000261E08DE30E9429028BE594E0B0
:101A30000E949803843409F071C180915A04853B57
:101A400090F480915A04865F80935A0460915A04FE
:101A500070E087E594E00E943E056FE070E080E072
:101A600090E00E94B80288EE93E00E9498038434CC
:101A700009F05DC18091E703853B90F48091E70315
:101A8000865F8093E7036091E70370E084EE93E064
:101A90000E943E056FE070E080E090E00E94B80296
:101AA00085E793E00E949803853509F049C180914C
:101AB0007403853B90F480917403865F8093740374
:101AC0006091740370E081E793E00E943E056FE04F
:101AD00070E080E090E00E94B80282E093E00E9413
:101AE0009803843409F035C180910103853B90F45B
:101AF00080910103865F809301036091010370E090
:101B00008EEF92E00E943E056FE070E080E090E092
:101B10000E94B802E1E08091DD048111E0E0E195EE
:101B2000F0E0E653FB4F848980680E94CD0784E390
:101B300092E00E942A076801012E000CEE08FF08BF
:101B400017FF10C141E06DE28AEC94E00E947A0731
:101B500022273327A9012C193D094E095F0919A233
:101B6000CE0181967C01CA01B901A30192010E94B4
:101B7000980F605DF70162937F01211531054105E2
:101B8000510589F7E114F10419F0C7010E942A07F1
:101B9000E091DD04E23008F0FBC0E150F0E0E653F4
:101BA000FB4F848980680E94CD070039F1E01F0750
:101BB00064F480E492E00E942A0760E081E00E94E1
:101BC000290260E083E00E942902C8018059914007
:101BD0008C32914008F0DEC088E492E00E942A072F
:101BE00061E082E00E94570261E082E00E942902E7
:101BF00061E081E00E94290260E083E00E94290206
:101C000061E085E40E94290261E070E080E090E0FC
:101C10000E94B80260E085E40E94290284E40E94E8
:101C200004079B0177FF02C02F5F3F4FB9017595F5
:101C30006795072E000C880B990B0E9473102DECF2
:101C40003CEC48EE51E40E94C90F0E943B104B014E
:101C50001B0161E08DE00E94290261E070E080E0FC
:101C600090E00E94B80260E08DE00E9429028CE0C2
:101C70000E9404079B0177FF02C02F5F3F4FB9010D
:101C800075956795072E000C880B990B0E947310B1
:101C90002DEC3CEC48EE51E40E94C90F0E943B1031
:101CA0006B018B0194E02916310420F004301105FA
:101CB00008F08CC061E082E30E94570260E082E39A
:101CC0000E9429026CE370E080E090E00E94B8027C
:101CD0006CE370E080E090E00E94B80224E0C21A59
:101CE000D1088FE2C816D10408F07BC061E08BE018
:101CF0000E9429026CE370E080E090E00E94B8024C
:101D000094E0291631040CF45ACE61E082E30E947B
:101D1000570261E082E30E94290251CE853509F025
:101D2000A2CE80915A0480915A048A508DCE853576
:101D300009F0B6CE8091E7038091E7038A50A1CEE7
:101D4000843409F0CACE80917403809174038A5060
:101D5000B5CE853509F0DECE809101038091010377
:101D60008A50C9CEA701960119A2CE0181967C01A5
:101D7000CA01B901A30192010E94980F605DF701A9
:101D800062937F01211531054105510589F7FACE8E
:101D9000E1E004CF0C3B12400CF432CF85E592E039
:101DA0000E942A0761E082E00E94570261E082E01F
:101DB0000E94290268EE73E080E090E00E94B80281
:101DC00061E081E00E94290261E017CFE4E08E1A11
:101DD000910861E0FFE28F16910408F060E083E46F
:101DE0006FCF60E08BE00E9429026CE370E080E03E
:101DF00090E00E94B802043011050CF4E0CD80CFD1
:101E000087E594E00E94D10B84EE93E00E94D10B11
:101E100081E793E00E94D10B8EEF92E00E94D10BFC
:101E2000EAECF4E01382128282E292E091838083F2
:101E300080E184838FEF858381E1868382E18783DC
:101E400083E1808784E1818785E182871386148618
:101E500015861686178681E00E94D30787E594E0F1
:101E60000E94670B80935A0484EE93E00E94670BF4
:101E70008093E70381E793E00E94670B80937403EC
:101E80008EEF92E00E94670B8093010349E052E0DD
:101E90006BE072E08BE594E00E941E0B46E052E09E
:101EA00068E072E088EE93E00E941E0B43E052E08F
:101EB00065E072E085E793E00E941E0B40E052E08F
:101EC00062E072E082E093E00C941E0B052E97FB1B
:101ED0001EF400940E947D0F57FD07D00E94980FBA
:101EE00007FC03D04EF40C947D0F5095409530952F
:101EF00021953F4F4F4F5F4F089590958095709576
:101F000061957F4F8F4F9F4F08950E94BA0FA59FF5
:101F1000900DB49F900DA49F800D911D11240895E4
:101F2000B7FF0C94850F0E94850F821B930B0895B9
:101F3000A1E21A2EAA1BBB1BFD010DC0AA1FBB1FCD
:101F4000EE1FFF1FA217B307E407F50720F0A21B3F
:101F5000B30BE40BF50B661F771F881F991F1A94AC
:101F600069F760957095809590959B01AC01BD01D6
:101F7000CF010895A29FB001B39FC001A39F700D30
:101F8000811D1124911DB29F700D811D1124911D81
:101F900008950E94DD0F0C94C5100E94BE1058F0E9
:101FA0000E94B71040F029F45F3F29F00C94AE1066
:101FB00051110C94F9100C94B4100E94D61068F3CF
:101FC0009923B1F3552391F3951B550BBB27AA27F2
:101FD00062177307840738F09F5F5F4F220F331F2C
:101FE000441FAA1FA9F335D00E2E3AF0E0E832D0F4
:101FF00091505040E695001CCAF72BD0FE2F29D0F7
:10200000660F771F881FBB1F261737074807AB07C8
:10201000B0E809F0BB0B802DBF01FF2793585F4F3D
:102020003AF09E3F510578F00C94AE100C94F910E4
:102030005F3FE4F3983ED4F3869577956795B7951F
:10204000F7959F5FC9F7880F911D9695879597F92A
:102050000895E1E0660F771F881FBB1F62177307A3
:102060008407BA0720F0621B730B840BBA0BEE1FB8
:1020700088F7E09508950E9442106894B1110C947D
:10208000F91008950E94DE1088F09F5798F0B92F3C
:102090009927B751B0F0E1F0660F771F881F991F9D
:1020A0001AF0BA95C9F714C0B13091F00E94F81037
:1020B000B1E008950C94F810672F782F8827B85F47
:1020C00039F0B93FCCF3869577956795B395D9F7F5
:1020D0003EF490958095709561957F4F8F4F9F4FFF
:1020E0000895E89409C097FB3EF49095809570950B
:1020F00061957F4F8F4F9F4F9923A9F0F92F96E954
:10210000BB279395F695879577956795B795F111C8
:10211000F8CFFAF4BB0F11F460FF1BC06F5F7F4F65
:102120008F4F9F4F16C0882311F096E911C0772377
:1021300021F09EE8872F762F05C0662371F096E880
:10214000862F70E060E02AF09A95660F771F881F4F
:10215000DAF7880F9695879597F9089597F99F670D
:1021600080E870E060E008959FEF80EC089500241F
:102170000A941616170618060906089500240A94EC
:1021800012161306140605060895092E0394000C72
:1021900011F4882352F0BB0F40F4BF2B11F460FF01
:1021A00004C06F5F7F4F8F4F9F4F089557FD90582A
:1021B000440F551F59F05F3F71F04795880F97FB0B
:1021C000991F61F09F3F79F08795089512161306C5
:1021D0001406551FF2CF4695F1DF08C016161706F4
:1021E0001806991FF1CF8695710561050894089529
:1021F000E894BB2766277727CB0197F90895991BA9
:1022000079E004C0991F961708F0961B881F7A95ED
:10221000C9F780950895EE0FFF1F881F8BBF0790A9
:0A222000F691E02D1994F894FFCF19
:10222A00393A38050604404142000E0FEA02EA0232
:10223A00EA02EA02EA02EA02EA02EA025544000073
:10224A00000079086C01EC02EB02000000008D032B
:10225A0091039503476173204C6576656C3A2000BB
:10226A005341464520202000415454454E54494F7D
:10227A004E2020200044414E474552202020000095
:00000001FF
